:020000040800F2
:10000000D0050020D90000087D2F0008D921000864
:1000100000000000000000000000000000000000E0
:10002000000000000000000000000000812F000818
:1000300000000000000000007F2F0008832F000850
:10004000EB00000800000000EB000008EB000008D7
:10005000EB000008370A0008EB000008470A000818
:1000600000000000EB000008EB000008EB000008B7
:10007000EB000008EB000008EB00000800000000A7
:10008000213000080000000000000000EB00000824
:1000900000000000EB000008EB000008EB00000887
:1000A000EB000008EB000008EB000008EB00000884
:1000B000F13800080000000000000000000000000F
:1000C0000448854600F094FC00480047BD4B0008FA
:1000D000C046C046D0050020044880470448004779
:1000E000FEE7FEE7FEE7FEE7FEE7FEE71130000869
:1000F000C100000830B50B46014600202022012433
:1001000009E00D46D5409D4205D31D469540491B4B
:100110002546954040191546521E002DF1DC30BD94
:1001200070B500242546002801DA01244042002948
:1001300001DA01254942FFF7DDFFAC4200D0404221
:10014000002C00D0494270BDD2B201E00270401CC8
:10015000491EFBD270470022F6E710B513460A4647
:1001600004461946FFF7F0FF204610BDF8B50246D9
:100170004A40D40F42004B0052085B089A4202D218
:100180000246084611464A0023D0C30D4A00DDB29C
:10019000120EAD1A202D35DA49020126490AF6055C
:1001A0008A19002C00D0524220214F1B1146B94021
:1001B0002A411018C20D9A4221D0002C17D0012DCF
:1001C00008DCDA05801AD20F8019D207DBB200F002
:1001D0009AFAF8BDDA05801A012340001B06C01800
:1001E00080185A428018CA0F1043490007E0490896
:1001F000C2071143DA05801A80194008801800F000
:100200007AFAF8BD61000122511A001BF7E70122BA
:10021000D2075140AAE70122D2075040A6E7024682
:1002200070B54A40D30FDB0740002DD04A002AD0DA
:10023000010E140E000212020919400A520A841813
:10024000E50104465443000A120A2E045043A4193F
:100250004219200CC543AA18120C0125AD03521CEB
:10026000521912047F39240400D0521C104301D4C7
:100270004000491EC2B20C06C0092018401C4008AC
:10028000802A02D003E0002070BD40084000002911
:1002900000DA0020184370BD70B502464A40D50F01
:1002A00040004A00ED0740085208002814D0002AF8
:1002B00012D0C40DD30D41020120C0055202490ADB
:1002C000520AE41A091812187D34914201D3641CB1
:1002D00000E04900002C01DA002070BD00239142AB
:1002E00001D3891A0343400849000028F7D10029A7
:1002F0000AD0914202D10121C90705E0914201D201
:10030000012101E00121C943E005C018401900F0B6
:10031000F2F970BD420005D04200120E52428A42EC
:1003200001DB00207047C90508187047F0B5074683
:100330000846584087B0C00F049048000E46590048
:1003400040084908BC1A884105D2384631461E4645
:1003500017460B4602465800400810434DD0300D5A
:10036000039040055900400D490D0590401A029038
:10037000402873DA18030121000B09050843019096
:1003800004980092002806D01146019A49420020A4
:10039000904100910190029840210A1A0199009819
:1003A00000F086F905460C466B4607CB00F090F945
:1003B000C0197141039A0E0D0023D71756401A46F3
:1003C0007A40164344D0049A002A2DD0029A012A7A
:1003D000039A15DC1205C01A914101263605001C4E
:1003E0007141D20F059ED2070093019202962A46D0
:1003F000234600F0FAF907B0F0BD38463146FAE777
:100400001605234A0F46B218C01AB7410121090543
:10041000001C4F4100187F41114618187941E20F26
:1004200010436D19644113E0E2076D081543640839
:10043000C2071443039A01261205C01A91413605DA
:10044000001C7141CE07400830434908C018514193
:100450002A46234600F0BCF9CDE7FFE704980122C5
:100460004000C117121A00238B4104983146C4176B
:10047000381AA141EEE730B40124E407634030BCF0
:1004800054E730B40124E407614030BC4EE700007B
:100490000000E0FFF0B50C465C4085B0E40FE407D7
:1004A00003944C000026640859009446490802460B
:1004B0000296224321D062460A431ED06200570DA5
:1004C0004A000E032303550D012402462C4924053E
:1004D000781B1B0B360B40182343264361460090C4
:1004E0001C46501AB44103D30098401C009002E00F
:1004F000921800985B41002803DA0020014605B0FD
:10050000F0BD0020012109050746864611E064463A
:100510001D46141BB54106D36546521BB3417446B4
:1005200007430C43A646CD074008490828439218C4
:100530005B4105460D43EAD11046184313D060468F
:10054000194650407140084306D06046101AB34126
:1005500006D20122002306E000220123DB0702E08D
:100560000122D2435310009874460105381C6141A2
:10057000029C039D0019694100F02AF9BFE70000C1
:10058000FD03000070B54B005B0803430BD04B002C
:100590005C0D002633466542B341D417AD1AA34122
:1005A00002DB0020014670BD12053018514170BDBC
:1005B000C217C10F504010B54018CA07962300213A
:1005C00000F0A1F810BD00000EB5C217C10F5040D9
:1005D000CA0740180021054B0293019200910A4678
:1005E0000B4600F002F903B000BD00003304000028
:1005F000C20FD207400040080BD0C10D0723DB011A
:10060000C91840020905400A1143C20840071143B6
:100610007047002001467047CB0FDB07490010B53B
:10062000490802460A4307D00A0D07240903E401DA
:10063000090B121B002A01DC002010BDC900440F69
:100640000C43C100E018D205801800F054F810BD2A
:10065000F0B51FB40646002082B005464024019143
:1006600000901BE0019922460F46304600F0D2F977
:10067000049A059B801A994110D3104619462246C8
:1006800000F016F8361A8F4101972246012000210A
:10069000009F00F00DF838184D4100902046641E70
:1006A0000028DFDC019B00982946324607B0F0BDE8
:1006B00010B5202A04DB0146203A9140002010BDED
:1006C000914020239C1A0346E3401943904010BDFB
:1006D00010B5202A06DBCB170846203A1041C11777
:1006E0000B4306E00B461341D0402024A21A914050
:1006F0000843194610BD002904DA401C490001D105
:1007000040084000704770B40024050C05D1102447
:10071000000402D1002921D01124050E01D10002CC
:100720000834050F01D10001241D850F01D180007F
:10073000A41C002801DB4000641C002908D02025EF
:100740002E1B0D46F540A14000D00121294308434E
:1007500001061B1B000ADB1D02D5002070BC704780
:10076000DB05181880180029F8DA401C4900F5D17B
:1007700070BC40084000704770B5002801DC0020C4
:1007800070BD410040020126400AF605090E80199D
:10079000CA0701D14000491E4D10002211463F35C5
:1007A0003346CB409B18D418844201D8001B1A460C
:1007B0004000491C1729F3DD5100814202D200217B
:1007C000C94300E00021E8058018FFF794FF70BDE1
:1007D00010B5002B08DA0024401C614192185B41DF
:1007E0001A4301D14008400010BDF0B51FB482B0DB
:1007F00005460C0003D0084603F092F802E003F02F
:100800008FF820300246009021462846FFF750FF1F
:10081000049B059A04460F4618431143084314D01D
:10082000184610431BD0009840210A1A1846059913
:1008300000F0F0F805460E46009A05990498FFF777
:1008400037FF084305D0012004E02046394607B0B1
:10085000F0BD0020C11705430E432C4337430099D8
:100860000E986305401A7905E40A00220C43FD0A3C
:100870000A3002D500200146E9E701051019694157
:100880000C9C0D9D00196941FFF7A2FFDFE70000F6
:10089000F0B51FB488B00B99099800244840099915
:1008A000C00F490049080991C0070B990090490001
:1008B00049080B9109990898A64608431CD00B9942
:1008C0000A98084318D0099801244000420D4800B6
:1008D000410D099824050003000B204309900B9853
:1008E0000003000B20430B9050181C4940180022B5
:1008F00001901446104605E0002001460DB0F0BD01
:10090000032801DA034600E003239C46C11A0AAE1D
:100910000AE05F0008ADED5B4F00F75B7D43002709
:10092000AA187C41491C5B1E6145F2DD410004AB05
:100930005A522104120C0A43240C401C0828DFDB05
:10094000019802900099704601910090059B049ACD
:1009500007990698FFF749FFD0E700000DFCFFFF5D
:100960004A0009030123090B1B0519430A4B10B563
:10097000520D9A4202DA0020014610BD064B343374
:100980009A4203DC9A1A00F045F810BD034BD218C6
:10099000FFF78EFE10BD0000FF030000CDFBFFFF40
:1009A00010B5002904DB0124E40740428C412146B4
:1009B000002B04DB1C460123DB075242A3418B4280
:1009C00000D1824210BD000010B5002904DB0124D3
:1009D000E40740428C412146002B04DB1C460123E6
:1009E000DB075242A341994200D1904210BD000062
:1009F000064C0125064E05E0E36807CC2B430C3C72
:100A000098471034B442F7D3FFF75EFBC04E00089E
:100A1000E04E000810B5202A04DB0846203AD040FA
:100A2000002110BD0B46D340D0402024A21A914093
:100A30000843194610BD10B5012000F089F80220C6
:100A400000F086F810BD10B5202000F081F840209D
:100A500000F07EF810BD72B6FEE70000F0B5002889
:100A600008D0014620314A79022A05D00422C26307
:100A7000002008710120F0BD026813680E24A34312
:100A80001360426C1468FF2301339C4314600268B6
:100A900014686408640014600C4A5568066C1C24D1
:100AA000264001242746B7403D435560826CC56C03
:100AB0005560026D002A05D015689D431560826D52
:100AC000406D42604C7100200871F0BD0000024092
:100AD000F8B50024024620325179022903D00421BE
:100AE000C16301242DE001680B680E25AB430B6048
:100AF00001680B685B085B000B60416C0B68FF25AD
:100B00000135AB430B6010494D68066C1C231E4039
:100B100001231F46B7403D434D60816CC56C4D605D
:100B2000016D002906D00E681D02AE430E60416DB6
:100B3000856D4D60537100211171816B002900D0CA
:100B400088472046F8BD00000000024070470000C2
:100B500070B5084D0446E868204203D0EC6020469A
:100B600000F00AF82869204203D02C612046FFF7E4
:100B7000EDFF70BD0018024010B5202804D10520FB
:100B80004021000700F0B0F810BD0000FCB50023C4
:100B900001259AE022462C469C4022406FD04E68A8
:100BA000012E05D0022E03D0112E01D0122E16D107
:100BB00086680327B4465E00B646B7406646BE4325
:100BC000B446CF687646B740664637438760466886
:100BD000A6430C79E406E40F9C4034434460C668A5
:100BE0005F000324BC40A446A6438C68BC40344349
:100BF000C4604C68022C01D0122C14D1DC08A40073
:100C000024180194266A5C07B646E60E0F24B44009
:100C100000967646A643B6460C69009EB4407646DA
:100C20002643019C266204686646B4430E79B607E3
:100C3000B60FBE40264306604C68E40044D59E08CB
:100C4000254CB6003419A446246E9E07F60E0F27D5
:100C5000B740BC4305273F07B84201D1002710E049
:100C60001E4FB84201D101270BE01D4FB84201D100
:100C7000022706E01B4FB84202D1032701E023E020
:100C80000527B740274364462766134E80363468ED
:100C90004F689443FF0300D51443346074684F6871
:100CA0009443BF0300D5144374600B4C26684F680F
:100CB0009643FF0200D51643266066684F68964348
:100CC000BF0200D5164366605B1C0A681446DA4012
:100CD00000D05FE7FCBD0000001802400004005097
:100CE00000080050000C0050426913460B401B04E2
:100CF00091430B4383617047002A01D081617047A3
:100D00008162704701488068704700000000002041
:100D100070B5024640325378202B1CD11378012B3A
:100D200019D00123137024245470046825689D434E
:100D30002560046825681E03B5432560046825689E
:100D40000D43256000680168194301602020507040
:100D50000020107070BD022070BD70B50246403298
:100D60005378202B1BD11378012B18D00124147039
:100D70002423537003681D68A5431D6005682B6814
:100D80000F263602B343090219432960006801683F
:100D900021430160202050700020107070BD02209F
:100DA00070BD000070B5040006D025464035687857
:100DB0000026002802D005E0012070BD2E702046DC
:100DC00000F09AF9242068702068016849084900F9
:100DD00001600F2160680906884321680861216865
:100DE0008A680120C00382438A60E1680129A16802
:100DF00008D021229202114322689160E168022901
:100E000002D005E00143F7E701212268C9025160E1
:100E100021684A680F4B1A434A602168CA688243B6
:100E2000CA60616920690843A16909020843216811
:100E3000C860216AE0690843216808602068016889
:100E40000122114301606664202068702663AE7041
:100E5000002070BD00800002FFB505460446403505
:100E6000687883B0202875D10C98002814D00D988C
:100E7000002811D0287801286CD001202870FFF7B5
:100E800041FF0746012200901923D103204601F0BB
:100E900061FA002874D103E00120400260646FE031
:100EA000222068704020A870002666640C9860625A
:100EB0000D98608566630E980090019704A90EC98D
:100EC000204601F0D3F9002801D02E7058E0618D42
:100ED0003448FF2905D9FF22228501231B060090F3
:100EE00006E0618D21850090208D0123C2B25B0652
:100EF0002046049901F01AFA0097002204212046A6
:100F00000E9B01F027FA00283AD12068406A616AF6
:100F10000870606A401C6062208D401E81B221858D
:100F2000608D401E6085608D00281FD000291DD176
:100F300000970022802120460E9B01F00BFA00282A
:100F40001ED1608DFF2806D9FF22228501231B06B2
:100F5000009607E024E0608D20850096208D012317
:100F6000C2B25B062046049901F0E0F9608D0028CA
:100F7000C2D13A4620460E9901F013FA002802D059
:100F8000012007B0F0BD20682021C16120684268BF
:100F9000054B1A4042606970AE702E700020F0E779
:100FA0000220EEE70024008000E800FEFFB50546C1
:100FB00004464035687883B0202872D10C98002808
:100FC00014D00D98002811D02878012869D001206C
:100FD0002870FFF797FE0746012200901923D103DE
:100FE000204601F0B7F9002871D103E0012040024A
:100FF00060646CE0212068704020A8700026666460
:101000000C9860620D98608566630E980090019759
:1010100004A90EC9204601F059F9002801D02E700C
:1010200055E0608DFF2805D9FF22228501231B068C
:10103000009606E0608D20850096208D0123C2B2C7
:101040005B062046049901F071F93A4620460E9954
:1010500001F0CDF900283AD1606A216800788862F1
:10106000606A401C6062608D401E6085208D401E5D
:1010700080B22085618D00291FD000281DD10097E6
:101080000022802120460E9B01F064F900281ED129
:10109000608DFF2806D9FF22228501231B060096BA
:1010A00007E024E0608D20850096208D0123C2B2E8
:1010B0005B062046049901F039F9608D0028C4D1FF
:1010C0003A4620460E9901F06CF9002802D0012022
:1010D00007B0F0BD20682021C16120684268054B3F
:1010E0001A4042606970AE702E700020F0E7022056
:1010F000EEE7000000E800FE10B586B004461421BB
:101100006846FFF728F81249206888421ED1114C22
:10111000616B022001436163616B0140FF20059117
:101120008130009012200190012002900020039055
:101130000620049069460848FFF728FDE16B01206E
:1011400040050143E163E16B0140059106B010BD2C
:101150000054004000100240000400500248816822
:1011600002788918816070470000002010B5084897
:1011700000240168821511430160204600F00AF83E
:10118000002801D0012401E000F028F8204610BD1D
:101190000020024070B50F4E00243178054600292A
:1011A00015D07D20C000FEF7A5FF01460A48006863
:1011B000FEF7A0FF00F0F2FB002808D1042D06D2B4
:1011C00000222946401E00F02BF8756000E0012443
:1011D000204670BD000000200C00002008B5094822
:1011E0000168012211430160006810400090054829
:1011F0004038C26B01040A43C263C06B08400090D0
:1012000008BD000040100240002805DBC106C90EE1
:1012100001208840014908607047000000E100E0BB
:1012200010B502F0BDFB10BD10B50F4C21680322B4
:101230005202914301432160C11FFF39FA390ED197
:101240000A480621006848430949FEF753FF401C3D
:1012500002E0002805D0401E61694905F9D400204C
:1012600010BD032010BD0000007000400C000020E5
:1012700040420F00F8B50446006800264D4D80033B
:1012800058D54C4800274038C06BC00009D44948A5
:101290004038C26B01040A43C263C06B0840012797
:1012A000009045480168821511430160FFF72AFD4F
:1012B000009005E0FFF726FD0099401A022825D886
:1012C0003D480068C005F5D5E869032109020840DA
:1012D0000FD0616981420CD0E86903210902EA69F3
:1012E0008843012109040A43EA61EA698A43EA6101
:1012F000E861C0070FD0FFF705FD009008E0FFF799
:1013000001FD0099411A2D48814201D9032609E0C7
:10131000E8698007F3D5E869032109028843616918
:101320000843E861002F05D022484038C26B010411
:101330008A43C2632078C00705D068696168800865
:101340008000084368612078800606D5686903211B
:1013500009038843A168084368612088400411D5C7
:10136000686921698000800808436861012120695B
:101370008907884206D10F484038C168012212040B
:101380001143C1602088000512D5686903218903D3
:101390008843E168084368610121E0688903884265
:1013A00006D104484038C168012212041143C160CB
:1013B0003046F8BD40100240007000408813000025
:1013C000F8B50F46060043D04D4D28684007400F42
:1013D000B84213D22868C008C00038432860FFF71D
:1013E00091FC044605E0FFF78DFC011B4548814256
:1013F00061D828684007400FB842F4D13068424CA9
:1014000081070DD5400704D5A068072109030843CB
:10141000A060A0680F2109028843B1680843A0605A
:101420003078C00732D0706801280AD002280BD06B
:1014300000280FD03449403103280ED0C9698907EC
:1014400004E02168890301E021688901002906DBA5
:101450000120F8BD21684905F8E7096AEFE7A168AE
:10146000C908C9000143A160FFF74CFC009006E0E9
:10147000FFF748FC0099411A224881421BD8A06816
:10148000382108407168C9008842F1D128684007B6
:10149000400FB84217D91A480168C908C900394332
:1014A0000160FFF72FFC054607E0FFF72BFC411B0F
:1014B0001448814201D90320F8BD11480068400753
:1014C000400FB842F1D13078400706D5A068072117
:1014D00009038843F1680843A06000F031F8A1686F
:1014E0003C2289091140094A515CC906C90EC8400D
:1014F0000749086007480068FFF74CFEF8BD000088
:10150000002002408813000000100240BC4D00087B
:101510000C00002004000020064807490068896884
:10152000064A4904490F8900515CC906C90EC840E2
:10153000704700000C00002000100240FC4D000825
:1015400010B51C4CA0688006410F1B4815D0A1683F
:101550008906490F01290FD0A1688906490F022980
:1015600011D0A0688006400F04281DD0A068800616
:10157000400F03281BD0002010BD216889044A0FAA
:10158000012191400DE0E168E1684906490F491CDD
:10159000FEF7B0FDE1684904490E4843E168490F90
:1015A000491CFEF7A7FD10BD0120C00310BD7D2022
:1015B000000210BD001002400024F400F8B5040041
:1015C0007ED020783827C007EB4D002846D0A86889
:1015D000E96838408907890F102802D008280BD005
:1015E00001E0032908D001206268000482420AD188
:1015F00029680143296015E0286880032ED56068BA
:101600000028DDD02AE0052301211B0489049A4229
:101610002A6802D10A432A60EAE782432A602868DE
:1016200088432860606800280CD0FFF76BFB0646F3
:1016300004E0FFF767FB801B642873D828688003E9
:10164000F7D50BE0FFF75EFB064604E0FFF75AFB19
:10165000801B6428F1D828688003F7D4207880079D
:1016600069D5A868E96838408A070721920FC9023E
:10167000102802D0002813D001E0022A10D0E06820
:10168000002846D0286888432169084328602868D4
:10169000FF21013108432860FFF734FB06462CE0A8
:1016A0002A68520502D5E268002A89D06A687F2339
:1016B0001B029A4363691B021A436A60002800E018
:1016C0008DE00ED128688843216908432860286886
:1016D00001218004400F8140A848FEF70BFDA84976
:1016E0000860A8480068FFF755FD002877D122E080
:1016F000FFF708FB801B02289FD828684005F7D514
:1017000068687F21090288436169090208436860AB
:1017100011E02968FF20013081432960FFF7F2FAC8
:10172000064605E098E0FFF7EDFA801B022884D812
:1017300028684005F7D42078934E00072ED5A86876
:101740008006400F03280AD0A0690028306A16D00E
:10175000012108433062FFF7D5FA07460BE0306AF3
:1017600080071BD5A06900289FD017E0FFF7CAFAB1
:10177000C01B022870D8306A8007F7D50EE04008F9
:1017800040003062FFF7BEFA074604E0FFF7BAFAFE
:10179000C01B022860D8306A8007F7D42078400741
:1017A0006CD5A86800278006400F042818D0E86B85
:1017B000C00008D4E96B012000070143E963E96B2D
:1017C00001400127009171480168C90519D40168D9
:1017D000821511430160FFF795FA00900DE083E058
:1017E000F06980074AD5A06800287DD046E0FFF761
:1017F00089FA0099401A02282ED864480068C0056A
:10180000F5D5A168012910D004200529F16911D06E
:1018100049084900F161F1698143F161A06800283C
:1018200016D0FFF76FFA00900EE0F069012108432F
:10183000F061F3E70143F161F7E7FFF763FA00991D
:10184000411A534881426DD8F0698007F5D50EE002
:10185000FFF758FA009007E064E0FFF753FA0099A9
:10186000411A4B4881425DD8F0698007F5D4002FBA
:1018700004D0E96B012000078143E963E069002897
:1018800077D0A9688906490F022951D0012636066A
:10189000022828680DD0B0432860E86880088000DE
:1018A000E860E8683B490840E860FFF72BFA044627
:1018B0003AE0B0432860FFF725FA074604E0FFF757
:1018C00021FAC01B02282DD828688001F7D4616A4C
:1018D000206AA26A0843E16A120211430843216B9D
:1018E0000843E9682C4A00E041E011400843E86001
:1018F000286830432860E868012109070843E86048
:10190000FFF700FA044604E0FFF7FCF9001B022889
:1019100008D828688001F7D52BE0FFF7F3F9001B02
:10192000022801D90320F8BD28688001F5D420E001
:101930000128F8D0E868226A8107890F914216D100
:101940007021626A0140914211D17F21A26A09028D
:101950000140120291420AD11F214904E26A01406A
:10196000914204D1400F216B4007884201D00120F1
:10197000F8BD0020F8BD0000001002400024F40073
:101980000C000020040000204010024000700040C5
:1019900088130000FFFFFEEF8C80C11F094910B5BE
:1019A000401E884201D9012010BD074C606103210F
:1019B000081F01F0F5FF0020A06107202061002032
:1019C00010BD0000FFFFFF0000E000E0704770471F
:1019D00070470000F0B5034620331A7F012A24D057
:1019E00001221A7702225A7704686268A568104FAC
:1019F000BC4205D116460F22120596434A6832436F
:101A00007026B2430E68164366600068B84202D082
:101A1000084A904204D18022896895432943816015
:101A20000120587700201877F0BD0220F0BD00009B
:101A3000002C01400004004070B5040005D025468C
:101A40002035687F002802D006E0012070BD00200C
:101A50002877204600F016F802206877211D2068BC
:101A600001F0E6FA012240342272AA77EA77227066
:101A70006270A270E27022716271A271E2716A7783
:101A8000002070BD08B50068094988420FD1094897
:101A9000C26B02210A43C263C06B0022084000905F
:101AA00001211020FFF7BCFB1020FFF7ADFB08BDA4
:101AB0000004004000100240014620314A7F012A04
:101AC00001D00120704702224A770168CB680122C9
:101AD0001343CB6000680949884202D00849884214
:101AE00007D18168074B1940062905D0DB1F9942B1
:101AF00002D001681143016000207047002C0140B2
:101B0000000400400700010070B50546044620357A
:101B1000287F012817D001262E77022068772268B7
:101B200090682E4B1840FF231B02984390600A6870
:101B3000502A32D00EDC202A4CD006DC002A49D0B4
:101B4000102A3BD146E0022070BD302A42D0402A04
:101B500034D137E0602A28D0702A12D00120000347
:101B6000121A2BD0824229D1CB684A688968206832
:101B700001F09AFA20688168012292031143816082
:101B80001CE0CB684A688968206801F08DFA2168FA
:101B9000886877221043886010E0CA684968206826
:101BA00001F098FA5021206806E0CA684968206868
:101BB00001F0A1FA6021206801F082FA6E7700201E
:101BC000287770BDCA684968206801F083FA40210F
:101BD0002068F1E711462068EEE7000088FFCEFF9D
:101BE0007047000070B50446006801690025C943CC
:101BF0008907002915DBC168C943890711D4E91E8B
:101C0000016101202077206880698007204602D08A
:101C1000FFF7E6FF04E000F0A7F8204600F0A5F883
:101C2000257720680169C943490717D4C168C943AA
:101C3000490713D40421C943016102202077206899
:101C400080698005800F204602D0FFF7C9FF04E0BD
:101C500000F08AF8204600F088F8257720680169AE
:101C6000C943090716D4C168C943090712D408211A
:101C7000C9430161042020772068C069800720469D
:101C800002D0FFF7ADFF04E000F06EF8204600F050
:101C90006CF8257720680169C943C90617D4C16863
:101CA000C943C90613D41021C94301610820207714
:101CB0002068C0698005800F204602D0FFF790FFA2
:101CC00004E000F051F8204600F04FF82577206836
:101CD0000169C943C90708D1C168C943C90704D10B
:101CE000891E0161204600F041F820680169C9435E
:101CF000090609D4C168C943090605D48021C9432E
:101D000001612046FFF763FE20680169C943C905E8
:101D100008D4C168C943090604D4124901612046A8
:101D2000FFF754FE20680169C943490609D4C16818
:101D3000C943490605D44021C9430161204600F04A
:101D400016F820680169C943890609D4C168C943E6
:101D5000890605D42021C94301612046FFF738FEDA
:101D600070BD0000FFFEFFFF70477047704770476F
:101D7000704770477047704770470000F8B50368B8
:101D80000446D96918689A68914D0E462E4025463A
:101D90008035002E6CD08F4E8F4F16400740374352
:101DA0007FD0CF0706D0C70504D501271F62EB6897
:101DB0003B43EB608B0708D5D30706D02768022387
:101DC0003B62EB6804273B43EB604B0708D5D30726
:101DD00006D0276804233B62EB6802273B43EB6095
:101DE0000B0709D520230340334305D02668082379
:101DF0003362EE681E43EE600B0509D5430107D53B
:101E000001232668DB023362EB6820263343EB6054
:101E1000EB68002B3AD089060AD520210840C90575
:101E20000A40104304D0216F002901D02046884782
:101E3000E86821688968490602D4282108422AD026
:101E4000204601F00DFA2068816849061FD5826896
:101E500040218A438260E06F002818D05F49816387
:101E6000E06FFEF735FE002810D0E06F816B0CE0CC
:101E70008E0616D5012720263F07064017403E4311
:101E80000FD0216F7FE00CE020468847F8BD204648
:101E9000FFF772FFF8BD2046FFF76EFF0020E860F5
:101EA000F8BDE66E012E59D1CE0657D5C60655D5DA
:101EB00010221A62206881682646490640360029A9
:101EC0002BDAE36F196849680904090CE8D0B78B6D
:101ED0008F42E5D9F18319680968890618D4016829
:101EE00013019943016020688168490849008160B5
:101EF000206881684023994381602020A8600020E9
:101F0000E0662068016891430160E06FFEF7A6FD7E
:101F1000B08BF18B401A81B21CE0B18BF38BC91AE4
:101F2000F38B89B2002BBBD00029B9D00368FF2600
:101F30002136B343036020688368264EF64333405E
:101F400083602020A8600020E06620672068036886
:101F5000934303602046FFF70BFFF8BDCE0208D580
:101F6000560206D50120000518622046FFF703FF40
:101F7000F8BD0E060BD501278026FF0506403A4026
:101F8000164304D0616F002900D07DE7F8BD4A06F2
:101F90000DD542060BD51A68204640218A431A60A7
:101FA000202169600021616700F015F9F8BD0A027F
:101FB00005D5420003D52046FFF7DCFEF8BDC90178
:101FC000FCD50028FADA2046FFF7D3FEF8BD000062
:101FD0000F08000001000010200100044D3200082D
:101FE00070B5040005D0254680356868002802D009
:101FF00006E0012070BD00202870204600F026F881
:102000002420686020680168490849000160204672
:1020100001F0FAFA0128EDD0A06A002802D020468B
:1020200001F07CF8206841680922D20291434160A6
:10203000206881682A22914381602068016801221A
:1020400011430160204601F0CFF870BD10B586B095
:10205000044614216846FEF77EF815492068884238
:1020600024D11448C26B012149040A43C263C26BE4
:102070000A400592426B01210A434263406B04917E
:10208000084005900C200090022001900020029052
:102090000390052069460007FEF778FD00221146EF
:1020A0001C20FFF7BDF81C20FFF7AEF806B010BDEE
:1020B000004400400010024030B5034680339C6865
:1020C000202C19D100290BD0002A09D001258468C1
:1020D0002D03AC4206D10469002C03D1CC0701D0FA
:1020E000012030BD1C78012C06D001241C70002377
:1020F000C36601F03FFB30BD022030BD7047FFB525
:10210000064604468036706883B00D46202860D1AC
:10211000002D0CD00598002809D00120A1680003EB
:10212000814207D12069002804D1E80702D00120AC
:1021300007B0F0BD307801284BD00120307000206E
:10214000F06021207060FEF7DDFD019027464037EA
:102150000598B8820598F8820120A16800038142A1
:1021600002D12069002804D002950025002030709B
:1021700015E000200290F9E700228021204601F0BE
:1021800069FB002818D10298002817D02168007830
:1021900088620298401C0290F88A401EF882F88AF1
:1021A000019B002806980090E6D10022402120469D
:1021B00001F050FB002808D00320B9E728882168E7
:1021C000C005C00D8862AD1CE6E7202070600020CD
:1021D000AEE70220ACE77047FEE701688A69D243A8
:1021E000920701D400228A6200688169C943C90745
:1021F00003D081690122114381617047F7B504461C
:1022000000680E468069C043C0062BD420272546AF
:10221000403520688069C043800612D5701CF8D014
:10222000FEF770FD0299401AB04201D8002EF0D19D
:10223000606C384360646F700020A87028700120C3
:10224000FEBD21681020C8612068C7612046FFF7E5
:10225000C4FF20684168044A11404160606C042159
:102260000843E7E70020FEBD00E800FEF8B504469D
:10227000164615481D46DAB20090079F00232046F7
:1022800000F054F83A462046069900F0B0F80028CD
:1022900018D12846F5B2012809D02168300A886291
:1022A0003A462046069900F0A2F800280AD1206894
:1022B00085620097002240212046069B00F04AF8E4
:1022C000002800D00120F8BD00200080F8B50446A9
:1022D000164615481D46DAB2C3020090079F2046F5
:1022E00000F024F83A462046069900F080F80028CD
:1022F00018D12846F5B2012809D02168300A886231
:102300003A462046069900F072F800280AD1206863
:1023100085620097002280212046069B00F01AF873
:10232000002800D00120F8BD00200080F0B506682C
:10233000059C7568064F600D384385438805800D00
:10234000110408431843204305437560F0BD0000A5
:10235000FF63FF03F8B51D4617460E46044609E025
:10236000681C07D0FEF7CEFC0699401AA8420BD88D
:10237000002D09D020688169304688430FD00020A5
:10238000B842EDD00020F8BD616C202001436164AB
:10239000403460700020A07020700120F8BD012042
:1023A000EEE770B516460D4604460FE03246294664
:1023B0002046FFF723FF002801D0012070BDFEF763
:1023C000A1FC801BA84208D8002D06D02068806997
:1023D000C0438006EAD4002070BD616C2020014318
:1023E0006164403460700020A0702070E5E770B533
:1023F00016460D46044611E0324629462046FFF7B0
:10240000FDFE002801D0012070BD681C06D0FEF73B
:1024100079FC801BA84208D8002D06D0206880696E
:10242000C0438007E8D4002070BD616C20200143C8
:102430006164403460700020A0702070E3E7000009
:10244000FEB56B4606222921D62000F0DFF868464B
:10245000008840BA00B2FEF7ABF8194C0746A060FE
:102460006846408840BA00B2FEF7A2F80646E0602F
:102470006846808840BA00B2FEF79AF805462061A7
:102480003846FEF7B5F80F4F0F4B3A46FEF702F805
:10249000FEF7C2F820623046FEF7AAF83A460A4B29
:1024A000FDF7F8FFFEF7B8F860622846FEF7A0F8DF
:1024B0003A46054BFDF7EEFFFEF7AEF8A062FEBD13
:1024C000400000208FC2F5285C02D040FEB56B466C
:1024D00006222321D62000F099F86846008840BAE9
:1024E00000B2FEF765F8194C0746606168464088FF
:1024F00040BA00B2FEF75CF80646A06168468088E4
:1025000040BA00B2FEF754F80546E0613846FEF7DF
:102510006FF80F4F0F4B3A46FDF7BCFFFEF77CF804
:10252000E0623046FEF764F83A460A4BFDF7B2FF28
:10253000FEF772F820632846FEF75AF83A46054B34
:10254000FDF7A8FFFEF768F86063FEBD40000020BD
:1025500014AE47E17A942C401FB5684600F02CF881
:1025600002A800F03EF86A461248118802888A1ACA
:1025700001460C390A806A4652884388D21A4A803A
:102580006A4692888088101A88800A486A461189AB
:10259000801D02888A1A01460C390A806A465289CF
:1025A0004388D21A4A806A4692898088101A8880A5
:1025B0001FBD0000940000201CB504466B46062297
:1025C0002921D62000F022F86846008840BA2080F1
:1025D0006846408840BA60806846808840BAA080DB
:1025E0001CBD1CB504466B4606222321D62000F0F4
:1025F0000DF86846008840BA20806846408840BA96
:1026000060806846808840BAA0801CBD3EB50192BB
:102610000A46642400930146029401230348FEF70E
:102620001BFC002800D001203EBD0000A8000020B7
:1026300008B56B4602222121D620FFF7E7FF694645
:1026400008784978000200B20843FDF7BDFF072271
:10265000D243FDF797FF0022034BFDF767FEFDF71E
:10266000DBFF0249886308BD0000394040000020BC
:1026700003B583B064230122029304A90192134697
:1026800000910246D6210448FEF790FC002800D0B5
:10269000012005B000BD0000A8000020F0B587B003
:1026A00014216846FDF757FD2B48426B20210A4351
:1026B0004263426B0A400592416B01252943416305
:1026C000416B29400591426B02210A434263406BF2
:1026D0002A4608400590052060210007FEF70CFB04
:1026E000012251021D48FEF707FB032000901C4EFB
:1026F000002405206946019602940007FEF746FA79
:10270000602705200294694600070097019503940D
:10271000FEF73CFA69461148009701960294FEF7CD
:1027200035FA6802009002946946019503940B48BB
:10273000FEF72CFA002211460520FEF771FD052058
:10274000FEF762FD002211460720FEF769FD072013
:10275000FEF75AFD07B0F0BD001002400004005023
:102760000000111010B51348114901601249416071
:10277000002181600161416181610122C161C2600A
:102780000162FEF70FFB002801D0FEF764F900217B
:102790000848FEF7BDFA002801D0FEF75CF90021D9
:1027A0000448FEF7DAFA002801D0FEF754F910BD0C
:1027B00000540040A8000020BC7D701010B588B007
:1027C00000240094019418480294039404940594FE
:1027D000144906940160FF219031846041609F217B
:1027E0000461C16080218161FFF726F9002801D0D2
:1027F000FEF731F901200003009069460A48FFF70F
:1028000083F9002801D0FEF726F9049404A90648AC
:102810000694FFF7DFF8002801D0FEF71CF908B096
:1028200010BD000000040040F400002010B50D4869
:102830000B490160E1214902416000218160C160D2
:1028400001618161C16101620C2241624261816268
:10285000FFF7C6FB002801D0FEF7FDF810BD000011
:10286000004400404001002010B50B4C7F2201467F
:10287000D2050848A26060600020E06020616061CD
:10288000A061E061206220701046FDF705FD6062E6
:1028900010BD00000000D84110000020F0B53E4CF3
:1028A00085B021690E463046FDF7B9FCE168054662
:1028B0000F463846FDF7B3FC3F210906FDF7ABFC98
:1028C0002946FDF7A4FC054630466169FDF7A7FCE3
:1028D00006463946A068FDF7A2FC3146FDF746FCE6
:1028E000294601F0D5FF2D4E3146FDF798FCA06238
:1028F0002169A068FDF793FC05466169E068FDF772
:102900008EFC2946FDF783FC03218907FDF787FC30
:1029100001F056FD3146FDF782FCE06261690391EA
:102920000846FDF77CFC2169074608460291FDF741
:1029300076FCE168064608460191FDF770FCA16847
:10294000054608460091FDF76AFC2946FDF70EFC96
:102950003146FDF75CFC3946FDF759FCFDF748FEB2
:1029600005460E4603990098FDF759FC0746029963
:102970000198FDF754FC3946FDF7F8FB0121FDF7FE
:10298000C9FCFDF735FE2A46334601F0B3FE0120AF
:10299000207005B0F0BD000010000020E12E65425F
:1029A00070B500210446C943FDF7B4FC0546104943
:1029B00060100C1A21462846FDF731FC2146FDF730
:1029C0002EFCFF26B6053146FDF725FC2146FDF716
:1029D00026FC044601462846FDF721FC2146FDF76A
:1029E0001EFC3146FDF717FC2146FDF718FC70BDB3
:1029F000DF59375FFFB591B01C460E46FE4D1A9F5A
:102A00002946FDF70CFC119029463046FDF707FCDE
:102A1000129029461398FDF702FC05466000000E4F
:102A200006D17800000E03D11B984000000E7DD027
:102A30001B990846FDF7F3FB394600900846FDF761
:102A4000EEFB064621460846FDF7E9FB3146FDF759
:102A50008DFB0099FDF78AFBFFF7A2FF06460146B2
:102A60002046FDF7DCFB149031463846FDF7D7FBD6
:102A70001A9031461B98FDF7D2FB1E991B90084611
:102A8000FDF7CDFB1D9906460846FDF7C8FB1C99CE
:102A900004460846FDF7C3FB2146FDF767FB3146B8
:102AA000FDF764FBFFF77CFF044601461C98FDF729
:102AB000B6FB1C9021461D98FDF7B1FB1D902146E9
:102AC0001E98FDF7ACFBCD4C1E90A1680F46384612
:102AD000FDF7A5FB0B90E16838460291FDF79FFBDF
:102AE0000490216938460191FDF799FB03906169D3
:102AF00038460E46FDF793FB029908900846FDF70D
:102B00008EFB0F9001990298FDF789FB07903146E3
:102B10000298FDF784FB069001990846FDF77FFBBC
:102B2000059031460198FDF77AFB00E06DE13146F2
:102B300009900846FDF773FB029003990698FDF78C
:102B400015FB0D901E99FDF76AFB0746089907983B
:102B5000FDF75DFB0C901D99FDF761FB06463F20DC
:102B600000060599FDF753FB0299FDF750FB0E9007
:102B70001C99FDF754FB3146FDF7F8FA3946FDF78D
:102B8000F5FA0121FDF7C6FB064604990998FDF701
:102B90003EFB1E99FDF743FB07463F2000060F99B9
:102BA000FDF735FB0F900299FDF731FB1D99FDF7FD
:102BB00036FB019008990798FDF7D8FA1C99FDF7A4
:102BC0002EFB0199FDF7D2FA3946FDF7CFFA012124
:102BD000FDF7A0FB0146FDF722FB074631460846FC
:102BE000FDF71DFB3946FDF7C1FA02F0A3F801908D
:102BF00005990F98FDF70BFB08901E99FDF70FFB49
:102C0000074604990998FDF7B1FA09901D99FDF757
:102C100006FB064603990698FDF7F9FA07901C99FA
:102C2000FDF7FDFA3146FDF7A1FA3946FDF79EFAA8
:102C30000121FDF76FFB07460798059009983F2192
:102C4000049009060B98FDF7E2FA0299FDF78EFA57
:102C5000069039460798FDF7E2FA064601990E9864
:102C6000FDF7DDFA3146FDF781FA079039460998FC
:102C7000FDF7D5FA064601990C98FDF7D0FA3146D2
:102C8000FDF774FA039039460898FDF7C8FA06462E
:102C900001990D98FDF7C3FA3146FDF767FA06462C
:102CA00003991E98FDF7BBFA074631461D98FDF7BC
:102CB000B6FA3946FDF7ABFA074604991B98FDF7BB
:102CC000AEFA019006991A98FDF7A9FA0199FDF755
:102CD0009EFA3946FDF74AFA089031461C98FDF7EE
:102CE0009EFA064607991E98FDF799FA3146FDF7B8
:102CF0008EFA064606991498FDF791FA074605994B
:102D00001B98FDF78CFA3946FDF781FA3146FDF73D
:102D10002DFA029007991D98FDF781FA064603994E
:102D20001C98FDF77CFA3146FDF771FA06460599C5
:102D30001A98FDF774FA074604991498FDF76FFA8C
:102D40003946FDF764FA3146FDF710FA03906068E2
:102D50000121C9050090884233DB0899FDF75FFA2D
:102D6000616A0191FDF75BFAA169FDF7FFF9A061C6
:102D7000074602990098FDF752FA0199FDF74FFABC
:102D8000E169FDF7F3F9E061064603990098FDF764
:102D900046FA0199FDF743FA216AFDF7E7F9206247
:102DA000044639461198FDF7E1F911903146129821
:102DB000FDF7DCF9129021462846FDF7D7F90546C4
:102DC00003E00020A061E06120620D4C08982146DC
:102DD000FDF725FA1199FDF7C9F9119021460298DE
:102DE000FDF71DFA1299FDF7C1F9129021460398DB
:102DF000FDF715FA294605E039FA8E3C100000204F
:102E000000007042FDF7B2F905465B4C0021C94352
:102E1000606AFDF77FFA06461199FDF700FA1190F6
:102E200030461299FDF7FBF9129030462946FDF71E
:102E3000F6F91390A6680796E5682069029001905C
:102E4000606913990590FDF7EAF9049012990198C9
:102E5000FDF7E5F907460120C00768401199FDF725
:102E6000DEF93946FDF7D3F90499FDF7D0F931467B
:102E7000FDF77CF9A060099012990598FDF7CFF94C
:102E8000074613990198FDF7CAF906460799119864
:102E9000FDF7C5F93146FDF769F93946FDF7B7F990
:102EA0002946FDF763F9E060074605991198FDF79B
:102EB000B6F9009028461399FDF7B1F90646129924
:102EC0000798FDF7ACF93146FDF7A1F90099FDF738
:102ED0004DF90299FDF74AF92061064601991198CA
:102EE000FDF79DF9009028461299FDF798F90546DF
:102EF00013990798FDF793F92946FDF737F90099DB
:102F0000FDF785F90599FDF731F901466061FDF797
:102F100086F9314602900846FDF781F905463946A3
:102F20000846FDF77CF9099906460846FDF777F94A
:102F30003146FDF71BF92946FDF718F90299FDF70F
:102F400015F9FFF72DFD05460146A068FDF767F965
:102F5000A0602946E068FDF762F9E0602946206933
:102F6000FDF75DF9206129466069FDF758F9606158
:102F70000020207015B0F0BD10000020FEE7704763
:102F8000704710B5FEF7EAF810BD30B597B03421A0
:102F90006846FDF7E0F800250D950E950F95182170
:102FA00011A81095FDF7D7F801204002FEF73CF973
:102FB0000224E001039000944020059008200A902C
:102FC00080030B900794000304950C9009950894D6
:102FD0006846FEF7F3FA002801D072B6FEE7072034
:102FE0000DA931C102210DA81095FEF7E9F90028BD
:102FF00001D072B6FEE720201190139511A8FEF7BC
:1030000039F9002801D072B6FEE717B030BD0000D4
:1030100001200249C00688607047000000ED00E012
:1030200010B50248FEF7DEFD10BD0000F4000020E0
:1030300070B50268174B184E984201D0B04203D1C8
:103040007024A2434C682243144C154D984208D07A
:10305000B04206D0134EB04203D0A04201D0A842E5
:1030600004D103263602B243CE6832438026B243EF
:103070004E69324302608A68C2620A68826298427C
:1030800003D0A04201D0A84201D109690163012106
:10309000416170BD002C014000040040004401402B
:1030A000004801400020004030B58468FF252D0213
:1030B0001B021343AC430B432343836030BD00002A
:1030C0008268034B1A400A4307210A438260704713
:1030D0008FFFCFFF30B5036A046A6408640004629E
:1030E0008469F025AC43120122430A24A3430B4315
:1030F0008261036230BD30B5036A1024A3430362CA
:103100008469036A0F252D031203AC432243A024D4
:10311000A343090119438261016230BD10B5018DDD
:10312000C90707D001684A6801235B049A43C36A50
:103130001A434A60018D890707D501684A6801234F
:103140001B049A43036B1A434A60018D490707D554
:1031500001684A6801239B049A43436B1A434A60FF
:10316000018D090707D501684A680123DB039A43EB
:10317000836B1A434A60018DC90607D502689168BE
:1031800001231B039943C36B19439160018D890689
:1031900007D501688A6801235B039A43036C1A43CD
:1031A0008A60018D490612D503685A680121090514
:1031B000446C8A4322435A60426C8A4207D10268B7
:1031C000516803235B059943836C19435160018D5A
:1031D000090607D501684A680123DB04C06C9A43DD
:1031E00002434A6010BD0000FEB50546002680354A
:1031F0000446EE60FDF786FD019020680068124FDE
:10320000000709D501210097002249052046019BAE
:1032100000F020FB00280DD12068006840070BD586
:1032200001210097002289052046019B00F012FB36
:10323000002801D00320FEBD20206860A860E6665B
:103240002E700020FEBD0000FFFFFF0110B5806A58
:10325000002201464031CA83CA82FEF78DFD10BDAF
:1032600001680A68FF2321339A430A6001688A686B
:10327000084B1A408A60C16E012904D101680A68AE
:1032800010239A430A60202288210A500021C16637
:1032900001677047FEFFFFEF70B5044640302146DE
:1032A0008031038C8D682268222D04D0906908211A
:1032B0000843906170BD526AA56D1A402A80A26DC4
:1032C000921CA265C28B521EC283C28B002AF1D10E
:1032D00022681368FF252135AB4313602268936889
:1032E0005B085B00936020228A6000252567E16E01
:1032F000012904D02046FEF701FFE56670BD216874
:103300000A6810239A430A60818B2046FEF730FD3D
:10331000F3E70000F0B505460446403589B0288C37
:1033200002902068C669016806918168049121466F
:10333000803100918968222905D0816908221143D2
:10334000816109B0F0BD2F8D5CE02068406A029A6F
:10335000A16D10400880A06D801CA065E88B401E08
:10336000E8832068C669710731D0F10709D0069952
:10337000C90506D5012101620098C068084300997B
:10338000C860B0070BD50498C00708D02168022098
:1033900008620098C068042108430099C86070075B
:1033A0000BD50498C00708D0216804200862009853
:1033B000C068022108430099C8600098C0680028CE
:1033C00005D02046FEF7D8FC00990020C860E88BA5
:1033D000002817D120680168FF2201329143016063
:1033E00020688168184A1140816000992020886017
:1033F00000202067E06E01281CD02046FEF77EFEEC
:103400000020E066002F01D0B0069ED4E88B002893
:1034100097D0298D814294D92068816801221207B2
:103420009143816009482067206801682022114388
:10343000016086E720680168102291430160A98B32
:103440002046FEF795FCDBE7FEFFFFEF9932000810
:1034500070B50446403022468032038C956821685E
:10346000222D04D0886908221043886170BD496A02
:103470001940A36D1970A16D491CA165C18B491E2E
:10348000C183C18B0029F1D121680B68FF2521354B
:10349000AB430B6021688B685B085B008B6020216D
:1034A000916000252567E16E012904D02046FEF7D2
:1034B00025FEE56670BD21680A6810239A430A60FC
:1034C000818B2046FEF754FCF3E70000F0B505467B
:1034D0000446403589B0288C01902068C66901688F
:1034E00006918168049121468031029189682229E0
:1034F00005D0816908221143816109B0F0BD2F8D8B
:103500005CE02068406A01990840A16D0870A06DD8
:10351000401CA065E88B401EE8832068C6697107DF
:1035200031D0F10709D00699C90506D501210162FC
:103530000298C06808430299C860B0070BD5049888
:10354000C00708D02168022008620298C0680421E0
:1035500008430299C86070070BD50498C00708D0CB
:103560002168042008620298C06802210843029979
:10357000C8600298C068002805D02046FEF7FCFB12
:1035800002980021C160E88B002817D120680168EB
:10359000FF2201329143016020688168184A11407E
:1035A000816002992020886000202067E06E012859
:1035B0001CD02046FEF7A2FD0020E066002F01D0BF
:1035C000B0069ED4E88B002897D0298D814294D9EB
:1035D00020688168012212079143816009482067B1
:1035E0002068016820221143016086E72068016895
:1035F000102291430160A98B2046FEF7B9FBDBE75F
:10360000FEFFFFEF51340008F8B5044680682169D9
:10361000E26908436169002511430843616E22682D
:10362000014310684B4B18400843106021684868FC
:10363000032212039043E26810434860A169206AA4
:10364000226808439168444B194001439160206807
:10365000C16A626A090909011143C1623F492068D0
:10366000884211D13E4840698007800F0FD0012861
:1036700006D0022802D003280BD103E0022109E082
:10368000042107E0082105E03649884201D10021E4
:1036900000E010210120E369C003334A334E344F68
:1036A000834228D1002906D0022907D0042907D057
:1036B000082941D108E0FDF72FFF03E0104603E0A1
:1036C000FDF73EFF00283BD0616A4900715AFCF7C4
:1036D00011FD616840004A088018FCF70BFD80B2BC
:1036E00001461039B94227D82149491C0140000739
:1036F000400F084322E0002906D0022907D0042900
:1037000007D0082918D108E0FDF706FF03E01046AE
:1037100003E0FDF715FF002812D0616A4900715AD5
:10372000FCF7E8FC61684A088018FCF7E3FC80B20B
:1037300001461039B94201D9012501E02168C8606C
:1037400020460121403041850185002020676067C7
:103750002846F8BDF369FFCFFFF4FF1100380140A0
:1037600040100240004400400024F400A44D000832
:10377000EFFF0000F0B58165014640318A83CA83BE
:1037800000230367012584682D03FF26AC4204D182
:103790000469002C13D12A4C0AE07F27002C09D0A1
:1037A00001263607B4420CD10469002C05D03F2411
:1037B0000C8407E00469002C01D00F8402E00E8421
:1037C00000E00B8404468034E3602226A66007688C
:1037D000BE68BC4601273E436746BE600127466E71
:1037E0007F07BE4219D1098D914216D88168A9423E
:1037F00002D1016900290ED01249016723700168C6
:103800000A68FF2301331A430A60006881681A05B9
:103810001143816010E00C49EFE78168A94202D1B1
:10382000016900290AD0094901672370006801680D
:10383000FF222132114301600020F0BD0449F3E76B
:10384000FF010000CD340008153300085134000892
:1038500099320008FFB581B005460F460446803511
:103860000A9E38E0701C36D0FDF74CFA0499401AD5
:10387000B04221D8002E1FD02068016849072AD500
:10388000C069C043000526D401202168C002086237
:1038900020680168FF22A13291430160206881689D
:1038A00049084900816020206860A860E860002025
:1038B0002870032005B0F0BD20680168FF22A13206
:1038C0009143016020688168490849008160202097
:1038D0006860A860EBE72068C1693846884305D076
:1038E000002103988142BDD00020E3E70121F8E7E1
:1038F00010B50248FEF742FA10BD0000400100205A
:103900000FB410B503A9044B044A029800F0BAF9A9
:1039100010BC08BC04B018472D4B0008A0000020C4
:103920002021020C01D010211046020A01D01046BD
:103930000839020901D01046091F820801D010463B
:10394000891E420801D0881E7047081A704700007F
:103950004900CA020243100000D004204A0D01D0E1
:1039600001221043044A490D914201D1022108432A
:10397000012800D105207047FF0700004100080220
:1039800000D004200A0E01D001221043090EFF29A5
:1039900001D102210843012800D105207047000011
:1039A0008307FF22DB0E9A408907090E9940002801
:1039B00008DB830809489B001B18186890430843DC
:1039C000186070470007000F0838830804489B0000
:1039D0001B18D86990430843D861704700E400E0A1
:1039E00000ED00E0F8B504464F1EC8000838211865
:1039F00015461E46086849683A4606239A4310D081
:103A00002A463346FCF744FF3A46D200083AA31848
:103A10001A687F1E5B68FCF789FC06223B469343CD
:103A2000EED1022F23D0042F11D0062F2FD12A46FA
:103A30003346FCF72DFFE36AA26AFCF777FC2A46BF
:103A40003346FCF725FF636A226AFCF76FFC2A46BF
:103A50003346FCF71DFFE369A269FCF767FC2A46C1
:103A60003346FCF715FF63692269FCF75FFC2A46C1
:103A70003346FCF70DFFE368A268FCF757FC2A46C3
:103A80003346FCF705FF63682268FCF74FFCF8BD7E
:103A900010B50122FCF776FD10BD10B5FCF746FC11
:103AA00010BD0000034A10B500201107FCF76AFDA5
:103AB00010BD000001FDFFFF10B50121FCF72AFC3D
:103AC00010BD10B5FCF752FB10BD10B50021084623
:103AD000FCF7E2FB10BD5E2110B5C9430807FCF7F7
:103AE00019FC10BD02E008C8121F08C1002AFAD153
:103AF00070477047002001E001C1121F002AFBD16E
:103B0000704700000149086070470000A4000020D1
:103B1000F0B51FB486B00998089A030D002102433E
:103B200014D05148514A18185043051411980128CF
:103B300010981AD0281A401C00264D4F4D49009667
:103B400001910490002812DA444211E011980124F6
:103B500049A3012801D11098C1430698119A8460A5
:103B60000360C26041600BB0F0BD4042E4E7044630
:103B7000210500203F4A001C51410391029012E0B0
:103B8000E00707D032463B4601990098FCF780FEDB
:103B90000191009032463B4610461946FCF778FEEC
:103BA00006460F466410002CEAD10498039B0028B7
:103BB000029A0999089806DAFCF76AFE019B009AB6
:103BC000FCF766FE05E0FCF765FC019B009AFCF73C
:103BD00061FC04460E460022284BFCF7F5FE03D894
:103BE0000020C043014607E00022254B2046314615
:103BF000FCF79CFBFCF7B4FE102409E0002C0ADB68
:103C00000A220023FCF724FD079B30321A55641E5C
:103C100002460A43F2D11122641C079B121B1C1995
:103C2000119B012B03D0012308430ED10AE0084366
:103C300004D0112010900020119077E71098151AE9
:103C40006D1E0BE01098824202DD00236D1C03E024
:103C5000824201DA00236D1E002BEED006981199E6
:103C60008260C16030C07EE701FCFFFF104D0000A4
:103C7000000014400000F03F300000000000F0435E
:103C80000000E03FFFB597B0064600251BE225285F
:103C900076D100242746F749049400E00443761CBB
:103CA00032780120203A90400842F7D130782A2813
:103CB0000ED00222307801463039092916D80499ED
:103CC0000A235943303940181443761C0490F1E715
:103CD000189802C804911890002904DA01204003C2
:103CE00004434842049002200443761C30782E2876
:103CF00014D1042004437078761C2A2809D118981E
:103D0000761C80C8189009E00A214F43303FC7193C
:103D1000761C3078014630390929F5D930786C287D
:103D200010D006DC4C281AD068280ED06A2817D18B
:103D300004E0742813D07A2812D110E00120400545
:103D400004430CE00121090501E0032109050C43AE
:103D50007178814203D1012000052418761C761C5D
:103D6000307866280BD013DC58287DD009DC002879
:103D70007BD04528F6D04628F4D047281AD1A9E1AF
:103D800018E0632835D0642870D0652812D1A1E1ED
:103D900070286CD008DC6728F1D069287DD06E28A7
:103DA0000DD06F2806D1BCE073282ED0752873D0B3
:103DB000782859D01A9A199990476D1C82E16002AF
:103DC000400F022809D003280DD004281898016854
:103DD0000DD00D60001D189074E11898EA17016865
:103DE0000D604A60F6E7189801680D80F2E70D70E3
:103DF000F0E718986A4601781172001D18900020AB
:103E0000507202A80090012005E0189802C818908E
:103E100000200091C04361070ED5002101E0019907
:103E2000491C0191B94213DA8142F8DB019A0099E9
:103E3000895C0029F3D10BE0002101E00199491CC4
:103E400001918142FADB019A0099895C0029F5D140
:103E5000019904981A9B471A21463846199A00F08E
:103E600099FA4019019903E051E030E115E050E082
:103E7000451807E0009800990078491C00911A9AAB
:103E8000199990470198401E0190401CF2D121469B
:103E900038461A9B199A12E137E00A200021009057
:103EA00001916002410F022907D0189A01CA1892A5
:103EB000C2179446032908D00AE01898C01DC1080B
:103EC000C90005C91891944607E000B2C21794468C
:103ED000042902D140B2C1178C46002261469445A4
:103EE00006DA0A460021404291418C462D2102E02B
:103EF000210504D52B216A461173012103E0E10756
:103F000001D02021F7E7029156E00A200AE01020B4
:103F100008E01020009000210420044301910827AC
:103F200003E008200021019100906002410F022966
:103F300007D0189A01CA189200229446032908D083
:103F400008E01898C01DC108C90005C91891944619
:103F500003E080B2042900D1C0B200210291210700
:103F60002AD531780D91702906D0009A1021019B35
:103F70004A401A4305D00EE040216A4611730121E0
:103F800008E06146014306D030216A4611730D995D
:103F9000517302210291009A0821019B4A401A4361
:103FA0000AD16146014301D1610705D530216A4636
:103FB000117301217F1E02913178582904D02EA15E
:103FC0000E910DA90D910DE030A1F9E76146019B1D
:103FD000009AFCF73DFB0E9B8C469B5C0D9A521E93
:103FE0000D92137061460143F0D10D9805A9081A8E
:103FF00020300190600703D501200004844300E0D5
:1040000001270198874201DD381A00E0002001995C
:1040100000904118029809180498401A0490E0038F
:1040200006D421461A9B199A049800F0B3F9451951
:10403000002706E003A81A9AC05D199990476D1CE5
:104040007F1C02988742F5DBE0030CD521461A9BC2
:10405000199A049800F09EF9451904E01A9A302044
:10406000199990476D1C0099481E00900029F5DCB5
:104070001FE0000009280100303132333435363773
:1040800038396162636465660000000030313233A4
:104090003435363738394142434445460000000044
:1040A0000D980D990078491C0D911A9A199990470D
:1040B0006D1C0199481E01900029F1DC4DE100F0D2
:1040C00059F94519761C3078002800D0DFE52846DC
:1040D0001BB0F0BD600700D406271898C01DC108AA
:1040E000C90048680A680831C30FDB071891190036
:1040F00001D09CA108E0210501D59BA104E0E107C6
:1041000001D09AA100E09AA14300109130785B0899
:1041100065280CD006DC452809D046281DD0472844
:1041200041D141E0662818D067283CD13CE000210D
:10413000112F01DB112000E0781C0191009008A9EB
:1041400011A8FFF7E5FC139905910021119A15922A
:104150007F1C12980197009150E00120C007039046
:104160000120019008A9009711A8FFF7D1FC139A2C
:10417000149905920022119B009212981593059AAA
:104180000192002901D0104602E0791C40180190EC
:10419000381A01D5019804E04042401E0090781C76
:1041A0000190C01B029043E0012F00DA012700219B
:1041B000112F01DD112000E038460191009008A97F
:1041C00011A8FFF7A5FC13990591119A00211298E7
:1041D00015920091019721070CD40599B94201DB92
:1041E000019900E00191012904DD159A491E515CF5
:1041F000302906D0B84201DA011D05DA0121029109
:1042000015E00199491EEDE7002805DC00994118E9
:1042100000910199091A03E0019A411C914200DDC5
:1042200001910099401A401C02900120C0070390A0
:10423000200706D402990198814202DB0020C04386
:10424000029000206946C87707AF01210398033721
:10425000C907884224D0022011902B201290039885
:1042600000280CDA404203902D20129007E00A212A
:104270000398FBF73FFF30317F1E0390397011998F
:10428000481E11900029F2DC03980028EFD1791E16
:10429000129808703078202108404530BF1E3870D1
:1042A00006A8C01BC01D039010980078002800D0FD
:1042B0000120019941180298C0170918039809189C
:1042C0000498401A401E0490E00306D421461A9B2D
:1042D000199A049800F05EF84519109800780028A3
:1042E00003D01A9A199990476D1CE00324D52146F2
:1042F0001A9B199A049800F04DF845191CE0009893
:10430000002807DB00990598884203DD1598405C7A
:10431000199901E0199930201A9A904700986D1C5C
:10432000401C00900298401E0290002804D11A9A66
:104330002E20199990476D1C0199481E0190002963
:10434000DDDC05E038781A9A7F1C199990476D1CBE
:104350000399481E03900029F4DC21461A9B199A00
:104360000498ACE62D0000002B00000020000000A7
:1043700000000000F8B5044600251E4617468804D4
:1043800004D405E039462020B0476D1C641EF9D5E1
:104390002846F8BDFFB50446002581B01E46C80377
:1043A00001D5302700E02027880404D505E03846F1
:1043B0000399B0476D1C641EF9D5284605B0F0BDC1
:1043C000F8B504464721400049060D22411812065F
:1043D000914253D83F21490688421BD960007F2172
:1043E0004008C905FBF717FF0021C943FBF792FFFF
:1043F000074600F09FFC002C04DA2F4D2D4EA90734
:10440000484001E02D4E2E4D03218907FBF707FFA1
:10441000044606E00026214635460846FBF7FFFE27
:10442000074628493846FBF7FAFE2749FBF79EFE68
:104430003946FBF7F4FE2549FBF798FE3946FBF7B2
:10444000EEFE2349FBF792FE3946FBF7E8FE2149D1
:10445000FBF78CFE009039462046FBF7E0FE009902
:10446000FBF7DDFE074629462046FBF77FFE39466F
:10447000FBF77CFE3146FBF779FEF8BD3921490692
:10448000884208D22046FFF779FA042801D1FFF7C5
:1044900022FB2046F8BDFF210906884203D92046A9
:1044A000FFF70AFBF8BD0120FFF72CFBFFF70DFB20
:1044B000F8BD00000000C9BF22AAFDB90000C93F35
:1044C00022AAFD3924FE1C3DC78AD83C1E67383D10
:1044D0001B93993DAFAA2A3EF0B589B004460D461C
:1044E0004800069172494008884215DB71498842AC
:1044F00003DC884207D1002C05D020462946FFF76F
:10450000C7FA09B0F0BD6C48002D02DD6B4909B057
:10451000F0BD6B4909B0F0BD6A49884211DA6A49B9
:1045200088420BDA20462946FFF712FA042801D107
:10453000FFF7B8FA2046294609B0F0BD0026F64339
:104540005DE06D0061496D08884232DA6049884259
:1045500019DA0026012332469B0720462946FBF73D
:10456000E5FE07460191012220462946FCF70AF89C
:104570000022584BFBF77FFF3A46019BFBF78AFF6F
:1045800004460D463BE001260022524B20462946B8
:10459000FBF7CCFE0746009100224E4B20462946F1
:1045A000FBF769FF3A46009BFBF774FF04460D4694
:1045B00025E04949884219DA02260022474B204665
:1045C0002946FCF765F90022424BFBF7AFFE074690
:1045D00002910022414B20462946FBF74CFF3A4608
:1045E000029BFBF757FF04460D4608E003262246D0
:1045F0002B4600203A49FBF74DFF04460D46224664
:104600002B4610461946FCF743F907460B4602466F
:104610000191FCF73DF90246029032480B460391A6
:1046200006217844FFF7DEF93A46019BFCF730F9A2
:1046300000902D48019105217844039B029AFFF7D1
:10464000D1F9039B029AFCF723F902460B46019924
:104650000098002E0BDAFBF769FE22462B46FCF78A
:1046600017F922462B46FBF70CFF09B0F0BDFBF70C
:104670005DFE22462B46FCF70BF91C4AF6007A44F5
:1046800093191A685B68FBF7F6FE22462B46FBF788
:10469000F2FE174A7A4493191A685B68FBF7F1FE39
:1046A000069A002AE1DA0122D207514009B0F0BD92
:1046B000000010440000F07F182D4454FB21F93F06
:1046C000FB21F9BF0000DC3F0000203E0000F33F6B
:1046D0000000E63F0000F03F008003400000F83F8C
:1046E0000000F0BF6208000024080000BE070000C0
:1046F00088070000F0B51FB4039A029D53006E4274
:104700002E439446F40F5B084A00574E52081C4350
:104710008E46B44205D847420743FC0F1443B442C7
:1047200005D92A466346FFF7B8F905B0F0BD4F4EEC
:1047300066442E430AD0CC0F6646B61702273E4089
:10474000264304464A4F144304D00BE0FFF7C4FE4F
:1047500005B0F0BD002EFBD0012EF9D0022E32D0D4
:10476000032E34D01C462C430BD03F4CA34216D111
:10477000A2420AD1012189078B438A431146039340
:104780000DE0704600280FDB25E03A4D7D44002EF9
:104790000ED0012E10D0022E15D0032E17D0A2421B
:1047A0001DD17046002816DA3148334905B0F0BDF6
:1047B0006968286805B0F0BD01226968D2072868D9
:1047C000514005B0F0BD38462C4905B0F0BD384623
:1047D0002B4905B0F0BD26482A4905B0F0BDD21AD4
:1047E00012153C2A02DD224D264C12E06346002BB6
:1047F00005DA3C23DA4202DA00252C4609E0039B65
:10480000029AFBF747FE49004908FFF765FE054697
:104810000C46002E12D0012E0DD01B4A1B4B022E2F
:104820002846214618D0FBF726FE3A46134BFBF7E5
:1048300022FE05B0F0BD0120C0074440002213460F
:1048400028462146FCF7ACF802D10220FFF75AF9BE
:104850002846214605B0F0BDFBF70DFE3A46074B52
:10486000FBF70FFE05B0F0BD0000F07F000010C0A8
:10487000182D445428070000FB21F9BFFB210940F3
:10488000FB2109C0FB21F93F075C143326A6A13C9C
:10489000F0B50C4601461D224B00D2069F18E526B6
:1048A00005463606620087B02046B7427BD21D27F8
:1048B000FF06D719B74276D24F0043003E0E1A0EBC
:1048C000B21A1B2A07DD002902DA854807B0F0BDBD
:1048D000844807B0F0BD1A26F2422FDA002807DA22
:1048E000002902DA804807B0F0BD804807B0F0BD6B
:1048F00021462846FBF7D0FC0646FFF73FF8042880
:1049000001D1FFF7E8F82846FFF738F805462046BA
:10491000FFF734F804463046FFF730F8042D01D095
:10492000052D08D1042C01D0052C04D1002802D17A
:104930000220FFF7E7F8304607B0F0BD9F4211D9DB
:10494000002902DA6A4F6B4E01E06B4F6B4E234633
:104950002C461D4601220346D207084654405040CB
:1049600019460BE0002807DA002902DA644F654E89
:1049700004E0654F654E01E000263746421A0123E8
:1049800052001B069A422FD2484061490CD5BF20E5
:10499000000602903846FBF73AFC07465D49304670
:1049A000FBF735FC0BE053E03F2000060290384651
:1049B000FBF7DCFB074657493046FBF7D7FB0646BB
:1049C00028460299FBF72BFC2146FBF7CFFB009012
:1049D00021460298FBF723FC2946FBF71CFC0099B3
:1049E000FBF75AFC044604E021462846FBF754FC3A
:1049F00004460146FBF713FC47490090FBF70FFC08
:104A00004649FBF7B3FB0099FBF709FC4449FBF768
:104A1000ADFB0099FBF703FC4249FBF7A7FB0099AC
:104A2000FBF7FDFB4049FBF7A1FB0546204600993B
:104A3000FBF7F5FB2946FBF7F2FB3146FBF796FB4C
:104A40002146FBF793FB3946FBF790FB07B0F0BD1F
:104A5000FF263606B34201D8B24205D901462846A0
:104A6000FFF72FF807B0F0BD2F4607437F000AD0AD
:104A7000B3420CD1B2420AD1012292079043914332
:104A80000D46044618E7FF22D2051043F9E7B3426A
:104A90000CD047000AD0B2420ED04E000CD053408A
:104AA000F0D4002A0EDB9F26F6050DE0FF22D2058A
:104AB0001143E00FC007FFE6C90FC907FF22D20567
:104AC0001043F9E65F26F60531462846FBF7A7FBBB
:104AD000054631462046FBF7A2FB04462946EBE695
:104AE000DB0FC9BFDB0FC93FDB0F49C0DB0F4940FC
:104AF0000000C9BF22AAFDB90000C93F22AAFD39A2
:104B0000000049C022AA7DBA0000494022AA7D3A8D
:104B10000060ED3EC30ACE372DAD65BD8FB8D53DE3
:104B20000FB511BE61C84C3EA8AAAABE13B57D231D
:104B3000DB00012269460248FDF7E1FA00981CBD3E
:104B4000400100201FB57D220121D20003A86C4640
:104B500007C40B460F22D6211748FCF77DF968469B
:104B6000007B6A2827D14C211120FDF781FD2F21E0
:104B70001920FDF77DFD40211020FDF779FD9E21D4
:104B80005820FDF775FD10215C20FDF771FD062111
:104B90005920FDF76DFD7F215A20FDF769FD842125
:104BA0005B20FDF765FD01211720FDF761FD082160
:104BB0005E20FDF75DFD1FBDA800002086B0FCF75C
:104BC000D5FAFEF7E2F9FDF769FDFDF7CBFDFDF73C
:104BD0002DFEFDF7F3FD00F0C3F8FFF7B3FF3D48EE
:104BE000FCF76AFF3C48FDF73FFEFDF721FDFDF7AE
:104BF00027FCFDF76BFCFDF7AFFC384C0420205E72
:104C0000FBF7D6FC01900220205EFBF7D1FC009060
:104C10000020205EFBF7CCFC314C05900420205E88
:104C200046217D274843FF003946FBF779FAFBF719
:104C3000BFFC06460220205E462148433946FBF76A
:104C40006FFAFBF7B5FC05460020205E462148437D
:104C50003946FBF765FAFBF7ABFC044600200290EF
:104C600003900490324629462046059BFDF7C2FE7C
:104C7000FDF714FE1B480068FBF7BAFC06461A480D
:104C80000F460068FBF7B4FC044618480D46006860
:104C9000FBF7AEFC0B466946F0C1024614A0FEF7D6
:104CA0002FFE1A480068FBF7A3FC064618480F467B
:104CB0000068FBF79DFC044616480D460068FBF7AC
:104CC00097FC0B466946F0C1024613A0FEF718FE9A
:104CD0008BE70000F400002000004843880000201B
:104CE0008E000020500000204C00002048000020D2
:104CF00041783D252E32662041793D252E326620B1
:104D0000417A3D252E32660D0A0000005C0000202D
:104D1000580000205400002047783D252E326620A0
:104D200047793D252E326620477A3D252E32660D85
:104D30000A00000070B50546FBF71EFD4100044661
:104D4000FF204908C005411AC90F07D0690049086A
:104D5000401AC00F02D10120FEF7D4FE204670BDDC
:104D600010B52A460748FDF7A7F9064C4034E08BFA
:104D7000A84205D2E18B04A0FEF7C2FD0520E08326
:104D800010BD0000400100206875617274322E521F
:104D90007858666572436F756E74203D2025640DEA
:104DA0000A000000010002000400060008000A00DA
:104DB0000C001000200040008000000100000000F6
:104DC00000000000000000000000000000000000E3
:104DD00000000000000000000000000001000000D2
:104DE00002000000030000000400000006000000B4
:104DF000070000000800000009000000000000009B
:104E000000000000000000000000000001000000A1
:104E10000200000003000000040000000000000089
:104E20004FBB610567ACDD3F182D4454FB21E93FC2
:104E30009BF681D20B73EF3F182D4454FB21F93FB1
:104E4000E2652F227F2B7A3C075C143326A6813C37
:104E5000BDCBF07A8807703C075C143326A6913CE2
:104E6000C4EB98999999C9BF711623FEC671BCBF4E
:104E70006D9A74AFF2B0B3BF9AFDDE522DDEADBFB6
:104E80002F6C6A2C44B4A2BF0D5555555555D53FCE
:104E9000FF8300922449C23F6E204CC5CD45B73FE9
:104EA000513DD0A0660DB13FEB0D76244B7BA93F61
:104EB00011DA22E33AAD903F00000000000000004C
:104EC000E04E000800000020A8000000E43A0008BE
:104ED000884F0008A800002028050000F43A0008C8
:104EE0000100000004000000000000000024F400A5
:104EF00000000000000000000000000000000000B2
:104F000000000000000000000000000000000000A1
:104F10000000000000000000000000000000000091
:104F20000000000000000000000000000000000081
:104F30000000000000000000000000000000000071
:104F40000000000000000000000000000000000061
:104F50000000000000000000000000000000000051
:104F60000000000000000000000000000000000041
:104F70000000000000000000000000000000000031
:084F8000000000000000000029
:04000005080000C12E
:00000001FF
